:100000000C945D000C9485000C9485000C94850084
:100010000C9485000C9485000C9485000C9485004C
:100020000C9485000C9485000C9485000C9485003C
:100030000C9485000C9485000C9485000C9485002C
:100040000C9449030C9485000C9485000C94850055
:100050000C9485000C9485000C9485000C9485000C
:100060000C9485000C94850000000008000201003B
:100070000003040700000000000000000000000072
:10008000250028002B0000000000240027002A0083
:10009000040404040404040402020202020203032E
:1000A0000303030301020408102040800102040836
:1000B0001020010204081020660411241FBECFEF97
:1000C000D8E0DEBFCDBF11E0A0E0B1E0EAE4FFE0A0
:1000D00002C005900D92A831B107D9F721E0A8E13F
:1000E000B1E001C01D92A334B207E1F710E0CDE505
:1000F000D0E004C02197FE010E949D07CC35D107B6
:10010000C9F70E9493030C94A3070C94000090E09D
:10011000FC01EC55FF4F249180579F4FFC018491C7
:10012000882399F090E0880F991FFC01EA57FF4F50
:10013000A591B491FC01E458FF4F859194918FB73C
:10014000F894EC91E22BEC938FBF0895AF92BF929D
:10015000CF92DF92EF92FF920F931F93CF93DF9393
:100160006C017B018B01040F151FEB015E01AE18C2
:10017000BF08C017D10759F06991D601ED91FC91E4
:100180000190F081E02DC6010995892B79F7C50111
:10019000DF91CF911F910F91FF90EF90DF90CF9063
:1001A000BF90AF90089590E0FC01E859FF4F249173
:1001B000FC01EC55FF4F3491FC01E057FF4FE491F7
:1001C000EE23C9F0222339F0233001F1A8F42130C5
:1001D00019F1223029F1F0E0EE0FFF1FE458FF4F34
:1001E000A591B4918FB7F894EC91611126C0309528
:1001F0003E233C938FBF08952730A9F02830C9F0E3
:10020000243049F7809180008F7D03C08091800069
:100210008F7780938000DFCF84B58F7784BDDBCF6D
:1002200084B58F7DFBCF8091B0008F778093B00035
:10023000D2CF8091B0008F7DF9CF3E2BDACF3FB780
:10024000F89480911D0190911E01A0911F01B09121
:10025000200126B5A89B05C02F3F19F00196A11DCE
:10026000B11D3FBFBA2FA92F982F8827BC01CD0100
:10027000620F711D811D911D42E0660F771F881F5F
:10028000991F4A95D1F708958F929F92AF92BF928E
:10029000CF92DF92EF92FF920E941F014B015C010F
:1002A00088EEC82E83E0D82EE12CF12C0E941F018D
:1002B000681979098A099B09683E7340810591058F
:1002C000A8F321E0C21AD108E108F10888EE880EEF
:1002D00083E0981EA11CB11CC114D104E104F104F7
:1002E00029F7FF90EF90DF90CF90BF90AF909F9055
:1002F0008F900895089590E080E00895FC010190AA
:100300000020E9F73197AF01481B590BBC018BE284
:1003100091E00C94A6008F929F92AF92BF920F93A0
:100320001F93CF93DF93CDB7DEB7A1970FB6F894A5
:10033000DEBF0FBECDBF19A2423008F44AE08E01E5
:100340000F5D1F4F842E912CB12CA12CA50194017F
:100350000E947B07E62FB901CA01EA30F4F4E05DA0
:10036000D801EE938D01232B242B252B79F790E0D8
:1003700080E0109719F0CD010E947E01A1960FB682
:10038000F894DEBF0FBECDBFDF91CF911F910F91CB
:10039000BF90AF909F908F900895E95CE1CFCF938D
:1003A000DF93EC0160E08E810E94D30061E08E81DA
:1003B0000E94D30060E08E810E94D3008BE891E020
:1003C0000197F1F7DF91CF910895CF92DF92EF92ED
:1003D000FF920F931F93CF93DF936C017C0187E013
:1003E000E80EF11CD0E0C0E0062F10E0B8010C2EA2
:1003F00002C0759567950A94E2F76170F7018191E3
:100400007F010E94D3002196C430D10579F7C6013F
:10041000DF91CF911F910F91FF90EF90DF90CF90E0
:100420000C94CF01CF92DF92EF92FF920F931F9324
:10043000CF93DF93EC01F62E642F8C810E94D300C2
:100440008D818F3F19F060E00E94D3000F2D10E0E6
:100450008F8584FF25C06E0187E0C80ED11CF12C6A
:10046000E12CB8010E2C02C0759567950A94E2F74D
:100470006170F60181916F010E94D300FFEFEF1AC6
:10048000FF0A88E0E816F10461F7CE01DF91CF9111
:100490001F910F91FF90EF90DF90CF900C94CF01C0
:1004A000B80184E0759567958A95E1F7CE010E94C1
:1004B000E5016F2DCE01DF91CF911F910F91FF903C
:1004C000EF90DF90CF900C94E50141E00E94120282
:1004D00081E090E008954F925F926F927F928F92A9
:1004E0009F92AF92BF92CF92DF92EF92FF920F93C3
:1004F0001F93CF936B017C01742EAC019B010E9472
:100500007607882399F08CE091E0CF911F910F91AD
:10051000FF90EF90DF90CF90BF90AF909F908F9023
:100520007F906F905F904F900C947E014601570131
:10053000E894B7F82FEF3FEF4FE75FE7C501B4014D
:100540000E94760781110DC02FEF3FEF4FE75FE765
:10055000C501B4010E94AC0518161CF480E191E0BD
:10056000D4CF2FEF3FEF4FE75FE4C701B6010E9402
:10057000040718161CF484E191E0C7CF2FEF3FEF7A
:100580004FE75FECC701B6010E94AC0587FDF3CFD2
:1005900020E030E0A901C701B6010E94AC0510E0DF
:1005A00000E087FF0CC041E06DE28BE291E00E9429
:1005B0001202F7FAF094F7F8F09401E010E0C0E0CE
:1005C00060E070E080E09FE37C1641F020E030E0E6
:1005D00040E251E40E94B105CF5FF6CFA70196013A
:1005E0000E9440054B015C010E9423062B013C0147
:1005F0004AE00E948B01080F191FCC23C9F1C301E7
:10060000B2010E9452069B01AC01C501B4010E94D7
:100610003F054B015C0141E06EE28BE291E00E94FC
:1006200012020F5F1F4FC15018F120E030E040E28E
:1006300051E4C501B4010E9409072B013C010E944D
:1006400023064B01B12CA12C4AE0C501B4010E9444
:100650008B01080F191FC501B4010E9452069B01AE
:10066000AC01C301B2010E943F054B015C01DBCF2D
:10067000C801CF911F910F91FF90EF90DF90CF9025
:10068000BF90AF909F908F907F906F905F904F90B2
:1006900008951F920F920FB60F9211242F933F933C
:1006A0008F939F93AF93BF938091190190911A01FB
:1006B000A0911B01B0911C013091180123E0230F80
:1006C0002D3758F50196A11DB11D20931801809377
:1006D000190190931A01A0931B01B0931C01809102
:1006E0001D0190911E01A0911F01B0912001019662
:1006F000A11DB11D80931D0190931E01A0931F01A8
:10070000B0932001BF91AF919F918F913F912F9115
:100710000F900FBE0F901F90189526E8230F02969A
:10072000A11DB11DD2CF789484B5826084BD84B5FB
:10073000816084BD85B5826085BD85B5816085BDDC
:1007400080916E00816080936E0010928100809194
:10075000810082608093810080918100816080931C
:100760008100809180008160809380008091B10041
:1007700084608093B1008091B00081608093B0006C
:1007800080917A00846080937A0080917A00826000
:1007900080937A0080917A00816080937A008091C2
:1007A0007A00806880937A001092C10081E4F82E6C
:1007B000CBE3DFE100E010E0F0927C0080917A0072
:1007C000806480937A0080917A0086FDFCCF8091CE
:1007D000780060917900762F682F70932A016093DA
:1007E0002901072E000C880B990B0E94540620E06B
:1007F00030E040E85AE30E94090720E030E040EA98
:1008000050E40E9409074B015C01809225019092FF
:100810002601A0922701B092280120E030E04AE7AB
:1008200054E40E94090720E030E44CE155E40E94C2
:100830003F0520E030E048EC52E40E94B1056093AF
:10084000210170932201809323019093240140E0C1
:1008500061E08BE291E00E941202CE010197F1F774
:100860000E94440160913B01862F846080933B018C
:100870006C6040E08BE291E00E94120243E0C5010F
:10088000B4010E946B020E944401609129017091A1
:100890002A01072E000C880B990B43E00E948B0164
:1008A0000E944401609121017091220180912301F5
:1008B0009091240143E00E946B020E9444010115C3
:1008C000110509F479CF0E94000076CFCF93DF9312
:1008D00010922E0110922D0184E091E090932C0152
:1008E00080932B0187E080932F018FEF809330015D
:1008F00086E08093310185E08093320184E080932B
:10090000330183E08093340182E0809335011092BB
:10091000360110923701109238011092390110926D
:100920003A0181E080933E0110923F0180E4809380
:10093000400180E18093410180E58093420187E09E
:100940000E948700809130018F3F11F00E94870044
:10095000809131010E948700CBE2D1E09E012B52B1
:10096000314080913A0184FD0AC084E090E02196F4
:10097000281739073CF48E810E948700EFCF88E06A
:1009800090E0F5CF8BE39DE00197F1F760E0809177
:100990002F010E94D30060E0809131010E94D300BA
:1009A000809130018F3F19F060E00E94D300609188
:1009B0003A0164FD45C063E08BE291E00E94E501ED
:1009C000CBE4D6E4CE010197F1F763E08BE291E04E
:1009D0000E94E5012197F1F763E08BE291E00E942C
:1009E000E50183E592E00197F1F762E08BE291E0A7
:1009F0000E94E50160913A01606240E08BE291E083
:100A00000E94120284E080933B0140E06CE08BE2A4
:100A100091E00E94120240E061E08BE291E00E94CE
:100A200012028BE39FE10197F1F782E080933C0192
:100A300040E066E08BE291E0DF91CF910C941202EE
:100A4000606240E08BE291E00E9412028BE496E447
:100A50000197F1F760913A01606240E08BE291E02A
:100A60000E94120283E592E00197F1F760913A014A
:100A7000606240E08BE291E00E941202BBCF5058CE
:100A8000BB27AA270E9457050C94CA060E94BC06E1
:100A900038F00E94C30620F039F49F3F19F426F481
:100AA0000C94B9060EF4E095E7FB0C94B306E92F1D
:100AB0000E94DB0658F3BA1762077307840795078D
:100AC00020F079F4A6F50C94FD060EF4E0950B2EBB
:100AD000BA2FA02D0B01B90190010C01CA01A00190
:100AE0001124FF27591B99F0593F50F4503E68F1EB
:100AF0001A16F040A22F232F342F4427585FF3CF2C
:100B0000469537952795A795F0405395C9F77EF4FC
:100B10001F16BA0B620B730B840BBAF09150A1F045
:100B2000FF0FBB1F661F771F881FC2F70EC0BA0FCB
:100B3000621F731F841F48F4879577956795B79553
:100B4000F7959E3F08F0B0CF9395880F08F099274E
:100B5000EE0F9795879508950E948F0608F481E01F
:100B600008950E94C5050C94CA060E94C30658F059
:100B70000E94BC0640F029F45F3F29F00C94B306B4
:100B800051110C94FE060C94B9060E94DB0668F322
:100B90009923B1F3552391F3951B550BBB27AA2736
:100BA00062177307840738F09F5F5F4F220F331F70
:100BB000441FAA1FA9F335D00E2E3AF0E0E832D038
:100BC00091505040E695001CCAF72BD0FE2F29D03B
:100BD000660F771F881FBB1F261737074807AB070D
:100BE000B0E809F0BB0B802DBF01FF2793585F4F82
:100BF0003AF09E3F510578F00C94B3060C94FE0633
:100C00005F3FE4F3983ED4F3869577956795B79563
:100C1000F7959F5FC9F7880F911D9695879597F96E
:100C20000895E1E0660F771F881FBB1F62177307E7
:100C30008407BA0720F0621B730B840BBA0BEE1FFC
:100C400088F7E09508950E94E30688F09F5798F092
:100C5000B92F9927B751B0F0E1F0660F771F881FC1
:100C6000991F1AF0BA95C9F714C0B13091F00E94DB
:100C7000FD06B1E008950C94FD06672F782F8827B4
:100C8000B85F39F0B93FCCF3869577956795B39502
:100C9000D9F73EF490958095709561957F4F8F4F71
:100CA0009F4F0895E89409C097FB3EF49095809576
:100CB000709561957F4F8F4F9F4F9923A9F0F92F22
:100CC00096E9BB279395F695879577956795B795A0
:100CD000F111F8CFFAF4BB0F11F460FF1BC06F5F86
:100CE0007F4F8F4F9F4F16C0882311F096E911C098
:100CF000772321F09EE8872F762F05C0662371F0B9
:100D000096E8862F70E060E02AF09A95660F771FCC
:100D1000881FDAF7880F9695879597F90895990FA8
:100D20000008550FAA0BE0E8FEEF16161706E807B5
:100D3000F907C0F012161306E407F50798F0621BD6
:100D4000730B840B950B39F40A2661F0232B242BAB
:100D5000252B21F408950A2609F4A140A6958FEFCA
:100D6000811D811D089597F99F6780E870E060E01C
:100D700008959FEF80EC089500240A941616170634
:100D800018060906089500240A941216130614067C
:100D900005060895092E0394000C11F4882352F0DF
:100DA000BB0F40F4BF2B11F460FF04C06F5F7F4F97
:100DB0008F4F9F4F089557FD9058440F551F59F07E
:100DC0005F3F71F04795880F97FB991F61F09F3F38
:100DD00079F087950895121613061406551FF2CF61
:100DE0004695F1DF08C0161617061806991FF1CFB1
:100DF00086957105610508940895E894BB276627D8
:100E00007727CB0197F908950E948F0608F48FEF9A
:100E100008950E941C070C94CA060E94BC0638F074
:100E20000E94C30620F0952311F00C94B3060C9495
:100E3000B90611240C94FE060E94DB0670F3959F00
:100E4000C1F3950F50E0551F629FF001729FBB27C1
:100E5000F00DB11D639FAA27F00DB11DAA1F649F5D
:100E60006627B00DA11D661F829F2227B00DA11D10
:100E7000621F739FB00DA11D621F839FA00D611D96
:100E8000221F749F3327A00D611D231F849F600DB7
:100E9000211D822F762F6A2F11249F5750409AF0E0
:100EA000F1F088234AF0EE0FFF1FBB1F661F771F6C
:100EB000881F91505040A9F79E3F510580F00C9437
:100EC000B3060C94FE065F3FE4F3983ED4F3869598
:100ED00077956795B795F795E7959F5FC1F7FE2BD7
:100EE000880F911D9695879597F908950E948F0612
:100EF000880B990B0895A1E21A2EAA1BBB1BFD01BA
:100F00000DC0AA1FBB1FEE1FFF1FA217B307E407E8
:100F1000F50720F0A21BB30BE40BF50B661F771F40
:100F2000881F991F1A9469F7609570958095909520
:100F30009B01AC01BD01CF010895EE0FFF1F05908D
:0A0F4000F491E02D0994F894FFCF1E
:100F4A00000000006502A6007B017A016E616E0056
:080F5A00696E66006F76660007
:107E0000112484B714BE81FFF0D085E080938100F7
:107E100082E08093C00088E18093C10086E0809377
:107E2000C20080E18093C4008EE0C9D0259A86E02C
:107E300020E33CEF91E0309385002093840096BBD3
:107E4000B09BFECF1D9AA8958150A9F7CC24DD24C4
:107E500088248394B5E0AB2EA1E19A2EF3E0BF2EE7
:107E6000A2D0813461F49FD0082FAFD0023811F036
:107E7000013811F484E001C083E08DD089C08234E0
:107E800011F484E103C0853419F485E0A6D080C0E4
:107E9000853579F488D0E82EFF2485D0082F10E0AE
:107EA000102F00270E291F29000F111F8ED06801E7
:107EB0006FC0863521F484E090D080E0DECF843638
:107EC00009F040C070D06FD0082F6DD080E0C81688
:107ED00080E7D80618F4F601B7BEE895C0E0D1E017
:107EE00062D089930C17E1F7F0E0CF16F0E7DF06D8
:107EF00018F0F601B7BEE89568D007B600FCFDCFD4
:107F0000A601A0E0B1E02C9130E011968C91119780
:107F100090E0982F8827822B932B1296FA010C0160
:107F200087BEE89511244E5F5F4FF1E0A038BF0790
:107F300051F7F601A7BEE89507B600FCFDCF97BE46
:107F4000E89526C08437B1F42ED02DD0F82E2BD052
:107F50003CD0F601EF2C8F010F5F1F4F84911BD097
:107F6000EA94F801C1F70894C11CD11CFA94CF0C13
:107F7000D11C0EC0853739F428D08EE10CD085E9AC
:107F80000AD08FE07ACF813511F488E018D01DD067
:107F900080E101D065CF982F8091C00085FFFCCF94
:107FA0009093C60008958091C00087FFFCCF809118
:107FB000C00084FD01C0A8958091C6000895E0E648
:107FC000F0E098E1908380830895EDDF803219F02E
:107FD00088E0F5DFFFCF84E1DECF1F93182FE3DFCA
:107FE0001150E9F7F2DF1F91089580E0E8DFEE27F6
:047FF000FF270994CA
:027FFE00040479
:0400000300007E007B
:00000001FF
