:100000000C945D000C9485000C9485000C94850084
:100010000C9485000C9485000C9485000C9485004C
:100020000C9485000C9485000C9485000C9485003C
:100030000C9485000C9485000C9485000C9485002C
:100040000C94FC030C9485000C9485000C948500A2
:100050000C9485000C9485000C9485000C9485000C
:100060000C9485000C94850000000008000201003B
:100070000003040700000000000000000000000072
:10008000250028002B0000000000240027002A0083
:10009000040404040404040402020202020203032E
:1000A0000303030301020408102040800102040836
:1000B00010200102040810204D0511241FBECFEFAF
:1000C000D8E0DEBFCDBF11E0A0E0B1E0E2EAFFE0A2
:1000D00002C005900D92A634B107D9F721E0A6E43D
:1000E000B1E001C01D92AF36B207E1F710E0CDE5F7
:1000F000D0E004C02197FE010E94C907CC35D1078A
:10010000C9F70E9446040C94CF070C94000090E0BD
:10011000FC01EC55FF4F249180579F4FFC018491C7
:10012000882399F090E0880F991FFC01EA57FF4F50
:10013000A591B491FC01E458FF4F859194918FB73C
:10014000F894EC91E22BEC938FBF0895AF92BF929D
:10015000CF92DF92EF92FF920F931F93CF93DF9393
:100160006C017B018B01040F151FEB015E01AE18C2
:10017000BF08C017D10759F06991D601ED91FC91E4
:100180000190F081E02DC6010995892B79F7C50111
:10019000DF91CF911F910F91FF90EF90DF90CF9063
:1001A000BF90AF90089590E0FC01E859FF4F249173
:1001B000FC01EC55FF4F3491FC01E057FF4FE491F7
:1001C000EE23C9F0222339F0233001F1A8F42130C5
:1001D00019F1223029F1F0E0EE0FFF1FE458FF4F34
:1001E000A591B4918FB7F894EC91611126C0309528
:1001F0003E233C938FBF08952730A9F02830C9F0E3
:10020000243049F7809180008F7D03C08091800069
:100210008F7780938000DFCF84B58F7784BDDBCF6D
:1002200084B58F7DFBCF8091B0008F778093B00035
:10023000D2CF8091B0008F7DF9CF3E2BDACF3FB780
:10024000F89480914B0190914C01A0914D01B09197
:100250004E0126B5A89B05C02F3F19F00196A11DA0
:10026000B11D3FBFBA2FA92F982F8827BC01CD0100
:10027000620F711D811D911D42E0660F771F881F5F
:10028000991F4A95D1F708958F929F92AF92BF928E
:10029000CF92DF92EF92FF924B015C010E941F010F
:1002A0006B017C010E941F016C197D098E099F0959
:1002B000683E734081059105A8F321E0821A9108F8
:1002C000A108B10888EEC80E83E0D81EE11CF11C1D
:1002D00081149104A104B10429F7FF90EF90DF90FD
:1002E000CF90BF90AF909F908F900895089590E029
:1002F00080E00895FC0101900020E9F73197AF01FB
:10030000481B590BBC0187E591E00C94A6008F9225
:100310009F92AF92BF920F931F93CF93DF93CDB76E
:10032000DEB7A1970FB6F894DEBF0FBECDBF19A2FE
:10033000423008F44AE08E010F5D1F4F842E912C4D
:10034000B12CA12CA50194010E94A707E62FB901A9
:10035000CA01EA30F4F4E05DD801EE938D01232B5D
:10036000242B252B79F790E080E0109719F0CD0130
:100370000E947A01A1960FB6F894DEBF0FBECDBFE2
:10038000DF91CF911F910F91BF90AF909F908F9071
:100390000895E95CE1CFCF93DF93EC0160E08E81BB
:1003A0000E94D30061E08E810E94D30060E08E81C4
:1003B0000E94D3008BE891E00197F1F7DF91CF9194
:1003C0000895CF92DF92EF92FF920F931F93CF93F6
:1003D000DF936C017C0187E0E80EF11CD0E0C0E007
:1003E000062F10E0B8010C2E02C0759567950A948F
:1003F000E2F76170F70181917F010E94D30021969D
:10040000C430D10579F7C601DF91CF911F910F91CB
:10041000FF90EF90DF90CF900C94CB01CF92DF92C2
:10042000EF92FF920F931F93CF93DF93EC01F62E81
:10043000642F8C810E94D3008D818F3F19F060E082
:100440000E94D3000F2D10E08F8584FF25C06E0120
:1004500087E0C80ED11CF12CE12CB8010E2C02C093
:10046000759567950A94E2F76170F60181916F01C5
:100470000E94D300FFEFEF1AFF0A88E0E816F104AC
:1004800061F7CE01DF91CF911F910F91FF90EF9017
:10049000DF90CF900C94CB01B80184E075956795FF
:1004A0008A95E1F7CE010E94E1016F2DCE01DF9127
:1004B000CF911F910F91FF90EF90DF90CF900C9410
:1004C000E10140E0682F87E591E00C940E02CF93A4
:1004D000DF93823029F490916601986090936601D1
:1004E00080936A0110926B0180E480936C0180E13B
:1004F00080936D0180E580936E0180915B010E9485
:10050000870080915C018F3F11F00E9487008091ED
:100510005D010E948700C7E5D1E09E01275531406B
:100520008091660184FD0AC084E090E0219628173E
:1005300039073CF48E810E948700EFCF88E090E07D
:10054000F5CF8BE39DE00197F1F760E080915B01CF
:100550000E94D30060E080915D010E94D3008091F1
:100560005C018F3F19F060E00E94D300809166012A
:1005700084FD39C063E087E591E00E94E101CBE4AE
:10058000D6E4CE010197F1F763E087E591E00E94A0
:10059000E1012197F1F763E087E591E00E94E10135
:1005A00083E592E00197F1F762E087E591E00E9430
:1005B000E1018091660180620E94610284E0809383
:1005C00067018CE00E94610281E00E9461028BE37E
:1005D0009FE10197F1F782E08093680186E0DF9167
:1005E000CF910C94610280620E9461028BE496E4D8
:1005F0000197F1F78091660180620E94610283E5B4
:1006000092E00197F1F78091660180620E94610299
:10061000D0CF90916A01691710F06FEF690FE62F44
:10062000F0E0E95AFE4F9489890F80680C946102CA
:1006300041E00E940E0281E090E008954F925F92A7
:100640006F927F928F929F92AF92BF92CF92DF92E2
:10065000EF92FF920F931F93CF936B017C01742E47
:10066000AC019B010E94A207882399F08CE091E0E5
:10067000CF911F910F91FF90EF90DF90CF90BF909F
:10068000AF909F908F907F906F905F904F900C9461
:100690007A0146015701E894B7F82FEF3FEF4FE793
:1006A0005FE7C501B4010E94A20781110DC02FEFC1
:1006B0003FEF4FE75FE7C501B4010E94D805181668
:1006C0001CF480E191E0D4CF2FEF3FEF4FE75FE4E0
:1006D000C701B6010E94300718161CF484E191E0AE
:1006E000C7CF2FEF3FEF4FE75FECC701B6010E9486
:1006F000D80587FDF3CF20E030E0A901C701B6019E
:100700000E94D80510E000E087FF0CC041E06DE2D8
:1007100087E591E00E940E02F7FAF094F7F8F09462
:1007200001E010E0C0E060E070E080E09FE37C1654
:1007300041F020E030E040E251E40E94DD05CF5F6F
:10074000F6CFA70196010E946C054B015C010E9447
:100750004F062B013C014AE00E948701080F191F38
:10076000CC23C9F1C301B2010E947E069B01AC01FA
:10077000C501B4010E946B054B015C0141E06EE2D2
:1007800087E591E00E940E020F5F1F4FC15018F1E4
:1007900020E030E040E251E4C501B4010E94350799
:1007A0002B013C010E944F064B01B12CA12C4AE0C9
:1007B000C501B4010E948701080F191FC501B401CA
:1007C0000E947E069B01AC01C301B2010E946B0531
:1007D0004B015C01DBCFC801CF911F910F91FF90BE
:1007E000EF90DF90CF90BF90AF909F908F907F90D1
:1007F0006F905F904F9008951F920F920FB60F92D7
:1008000011242F933F938F939F93AF93BF93809126
:10081000470190914801A0914901B0914A0130915E
:10082000460123E0230F2D3758F50196A11DB11D78
:10083000209346018093470190934801A09349017A
:10084000B0934A0180914B0190914C01A0914D01D0
:10085000B0914E010196A11DB11D80934B01909363
:100860004C01A0934D01B0934E01BF91AF919F9168
:100870008F913F912F910F900FBE0F901F90189561
:1008800026E8230F0296A11DB11DD2CF789484B51E
:10089000826084BD84B5816084BD85B5826085BD7C
:1008A00085B5816085BD80916E00816080936E000A
:1008B00010928100809181008260809381008091FC
:1008C00081008160809381008091800081608093AD
:1008D00080008091B10084608093B1008091B0006D
:1008E00081608093B00080917A00846080937A0068
:1008F00080917A00826080937A0080917A00816092
:1009000080937A0080917A00806880937A001092B8
:10091000C10082E00E94670260E080E00E9409035B
:1009200088E191E00E947A0161E080E00E94090381
:1009300080E291E00E947A0160ED77E080E090E053
:100940000E94440180E4F82ECBE3DFE100E010E0F8
:10095000F0927C0080917A00806480937A0080918C
:100960007A0086FDFCCF8091780060917900762F27
:10097000682F072E000C880B990B0E94800620E040
:1009800030E040E85AE30E94350720E030E040EADA
:1009900051E40E9435076093530170935401809392
:1009A00055019093560120E030E04AE754E40E945C
:1009B000350720E030E44CE155E40E946B0520E06F
:1009C00030E048EC53E40E94DD0560934F017093E2
:1009D0005001809351019093520181E00E94610285
:1009E000CE010197F1F768EE73E080E090E00E949D
:1009F000440180916701982F9460909367018C6007
:100A00000E94610260E081E00E9409038FE291E0B0
:100A10000E947A0160E088E00E940903609153011E
:100A200070915401809155019091560143E00E94CC
:100A30001E0360E08CE00E94090388E391E00E94BD
:100A40007A0161E081E00E9409038BE391E00E945A
:100A50007A0162E087E00E94090360914F01709182
:100A60005001809151019091520143E00E941E0378
:100A700062E08BE00E94090383E491E00E947A0126
:100A800064EC79E080E090E00E94440101151105DA
:100A900009F45ECF0E9400005BCFE7E5F1E013822E
:100AA000128284E091E09183808387E084838FEFDA
:100AB000858386E0868385E0878384E0808783E082
:100AC000818782E0828713861486158616861786AC
:100AD00081E00C9467025058BB27AA270E94830527
:100AE0000C94F6060E94E80638F00E94EF0620F00B
:100AF00039F49F3F19F426F40C94E5060EF4E095C2
:100B0000E7FB0C94DF06E92F0E94070758F3BA179A
:100B1000620773078407950720F079F4A6F50C9413
:100B200029070EF4E0950B2EBA2FA02D0B01B90169
:100B300090010C01CA01A0011124FF27591B99F053
:100B4000593F50F4503E68F11A16F040A22F232F5F
:100B5000342F4427585FF3CF469537952795A795AF
:100B6000F0405395C9F77EF41F16BA0B620B730B56
:100B7000840BBAF09150A1F0FF0FBB1F661F771FC7
:100B8000881FC2F70EC0BA0F621F731F841F48F47C
:100B9000879577956795B795F7959E3F08F0B0CF05
:100BA0009395880F08F09927EE0F979587950895EC
:100BB0000E94BB0608F481E008950E94F1050C94A0
:100BC000F6060E94EF0658F00E94E80640F029F46D
:100BD0005F3F29F00C94DF0651110C942A070C9406
:100BE000E5060E94070768F39923B1F3552391F3B3
:100BF000951B550BBB27AA2762177307840738F08C
:100C00009F5F5F4F220F331F441FAA1FA9F335D0E8
:100C10000E2E3AF0E0E832D091505040E695001C9C
:100C2000CAF72BD0FE2F29D0660F771F881FBB1F56
:100C3000261737074807AB07B0E809F0BB0B802D34
:100C4000BF01FF2793585F4F3AF09E3F510578F060
:100C50000C94DF060C942A075F3FE4F3983ED4F32C
:100C6000869577956795B795F7959F5FC9F7880F34
:100C7000911D9695879597F90895E1E0660F771F86
:100C8000881FBB1F621773078407BA0720F0621B17
:100C9000730B840BBA0BEE1F88F7E09508950E9442
:100CA0000F0788F09F5798F0B92F9927B751B0F0E8
:100CB000E1F0660F771F881F991F1AF0BA95C9F7E0
:100CC00014C0B13091F00E942907B1E008950C944E
:100CD0002907672F782F8827B85F39F0B93FCCF301
:100CE000869577956795B395D9F73EF4909580955D
:100CF000709561957F4F8F4F9F4F0895E89409C07D
:100D000097FB3EF490958095709561957F4F8F4F3E
:100D10009F4F9923A9F0F92F96E9BB279395F69554
:100D2000879577956795B795F111F8CFFAF4BB0FD2
:100D300011F460FF1BC06F5F7F4F8F4F9F4F16C036
:100D4000882311F096E911C0772321F09EE8872FC0
:100D5000762F05C0662371F096E8862F70E060E07C
:100D60002AF09A95660F771F881FDAF7880F9695F5
:100D7000879597F90895990F0008550FAA0BE0E899
:100D8000FEEF16161706E807F907C0F0121613064D
:100D9000E407F50798F0621B730B840B950B39F48D
:100DA0000A2661F0232B242B252B21F408950A26F3
:100DB00009F4A140A6958FEF811D811D089597F933
:100DC0009F6780E870E060E008959FEF80EC0895F1
:100DD00000240A941616170618060906089500241A
:100DE0000A9412161306140605060895092E039494
:100DF000000C11F4882352F0BB0F40F4BF2B11F408
:100E000060FF04C06F5F7F4F8F4F9F4F089557FD66
:100E10009058440F551F59F05F3F71F04795880F68
:100E200097FB991F61F09F3F79F0879508951216FF
:100E300013061406551FF2CF4695F1DF08C01616AB
:100E400017061806991FF1CF86957105610508945C
:100E50000895E894BB2766277727CB0197F9089573
:100E60000E94BB0608F48FEF08950E9448070C9477
:100E7000F6060E94E80638F00E94EF0620F095235F
:100E800011F00C94DF060C94E50611240C942A074B
:100E90000E94070770F3959FC1F3950F50E0551F0F
:100EA000629FF001729FBB27F00DB11D639FAA27BF
:100EB000F00DB11DAA1F649F6627B00DA11D661F0E
:100EC000829F2227B00DA11D621F739FB00DA11D2F
:100ED000621F839FA00D611D221F749F3327A00DE9
:100EE000611D231F849F600D211D822F762F6A2F85
:100EF00011249F5750409AF0F1F088234AF0EE0FEA
:100F0000FF1FBB1F661F771F881F91505040A9F716
:100F10009E3F510580F00C94DF060C942A075F3F3A
:100F2000E4F3983ED4F3869577956795B795F79552
:100F3000E7959F5FC1F7FE2B880F911D96958795CA
:100F400097F908950E94BB06880B990B0895A1E2BA
:100F50001A2EAA1BBB1BFD010DC0AA1FBB1FEE1F33
:100F6000FF1FA217B307E407F50720F0A21BB30B7E
:100F7000E40BF50B661F771F881F991F1A9469F7FA
:100F800060957095809590959B01AC01BD01CF0156
:100F90000895EE0FFF1F0590F491E02D0994F89449
:020FA000FFCF81
:100FA200000000001803A600770176016E616E0052
:100FB200696E66006F766600414353203731320016
:100FC2002020414B494D204F4C43554D2020005687
:100FD2006F6C74616A3D20006D5600414D50455260
:060FE2003D20004100006B
:107E0000112484B714BE81FFF0D085E080938100F7
:107E100082E08093C00088E18093C10086E0809377
:107E2000C20080E18093C4008EE0C9D0259A86E02C
:107E300020E33CEF91E0309385002093840096BBD3
:107E4000B09BFECF1D9AA8958150A9F7CC24DD24C4
:107E500088248394B5E0AB2EA1E19A2EF3E0BF2EE7
:107E6000A2D0813461F49FD0082FAFD0023811F036
:107E7000013811F484E001C083E08DD089C08234E0
:107E800011F484E103C0853419F485E0A6D080C0E4
:107E9000853579F488D0E82EFF2485D0082F10E0AE
:107EA000102F00270E291F29000F111F8ED06801E7
:107EB0006FC0863521F484E090D080E0DECF843638
:107EC00009F040C070D06FD0082F6DD080E0C81688
:107ED00080E7D80618F4F601B7BEE895C0E0D1E017
:107EE00062D089930C17E1F7F0E0CF16F0E7DF06D8
:107EF00018F0F601B7BEE89568D007B600FCFDCFD4
:107F0000A601A0E0B1E02C9130E011968C91119780
:107F100090E0982F8827822B932B1296FA010C0160
:107F200087BEE89511244E5F5F4FF1E0A038BF0790
:107F300051F7F601A7BEE89507B600FCFDCF97BE46
:107F4000E89526C08437B1F42ED02DD0F82E2BD052
:107F50003CD0F601EF2C8F010F5F1F4F84911BD097
:107F6000EA94F801C1F70894C11CD11CFA94CF0C13
:107F7000D11C0EC0853739F428D08EE10CD085E9AC
:107F80000AD08FE07ACF813511F488E018D01DD067
:107F900080E101D065CF982F8091C00085FFFCCF94
:107FA0009093C60008958091C00087FFFCCF809118
:107FB000C00084FD01C0A8958091C6000895E0E648
:107FC000F0E098E1908380830895EDDF803219F02E
:107FD00088E0F5DFFFCF84E1DECF1F93182FE3DFCA
:107FE0001150E9F7F2DF1F91089580E0E8DFEE27F6
:047FF000FF270994CA
:027FFE00040479
:0400000300007E007B
:00000001FF
