:100000000C945D000C9485000C9485000C94850084
:100010000C9485000C9485000C9485000C9485004C
:100020000C9485000C9485000C9485000C9485003C
:100030000C9485000C9485000C9485000C9485002C
:100040000C94A8030C9485000C9485000C948500F6
:100050000C9485000C9485000C9485000C9485000C
:100060000C9485000C94850000000008000201003B
:100070000003040700000000000000000000000072
:10008000250028002B0000000000240027002A0083
:10009000040404040404040402020202020203032E
:1000A0000303030301020408102040800102040836
:1000B0001020010204081020010511241FBECFEFFB
:1000C000D8E0DEBFCDBF11E0A0E0B1E0EAE0FFE0A4
:1000D00002C005900D92AA32B107D9F721E0AAE239
:1000E000B1E001C01D92AB35B207E1F710E0CDE5FC
:1000F000D0E004C02197FE010E947D07CC35D107D6
:10010000C9F70E94F2030C9483070C94000090E05E
:10011000FC01EC55FF4F249180579F4FFC018491C7
:10012000882399F090E0880F991FFC01EA57FF4F50
:10013000A591B491FC01E458FF4F859194918FB73C
:10014000F894EC91E22BEC938FBF0895AF92BF929D
:10015000CF92DF92EF92FF920F931F93CF93DF9393
:100160006C017B018B01040F151FEB015E01AE18C2
:10017000BF08C017D10759F06991D601ED91FC91E4
:100180000190F081E02DC6010995892B79F7C50111
:10019000DF91CF911F910F91FF90EF90DF90CF9063
:1001A000BF90AF90089590E0FC01E859FF4F249173
:1001B000FC01EC55FF4F3491FC01E057FF4FE491F7
:1001C000EE23C9F0222339F0233001F1A8F42130C5
:1001D00019F1223029F1F0E0EE0FFF1FE458FF4F34
:1001E000A591B4918FB7F894EC91611126C0309528
:1001F0003E233C938FBF08952730A9F02830C9F0E3
:10020000243049F7809180008F7D03C08091800069
:100210008F7780938000DFCF84B58F7784BDDBCF6D
:1002200084B58F7DFBCF8091B0008F778093B00035
:10023000D2CF8091B0008F7DF9CF3E2BDACF8E5098
:10024000806480937C0080917A00806480937A003F
:1002500080917A0086FDFCCF8091780090917900A2
:100260000895089590E080E00895FC010190002039
:10027000E9F73197AF01481B590BBC0183E491E0CA
:100280000C94A6008F929F92AF92BF920F931F93F0
:10029000CF93DF93CDB7DEB7A1970FB6F894DEBF4B
:1002A0000FBECDBF19A2423008F44AE08E010F5DA7
:1002B0001F4F842E912CB12CA12CA50194010E94DA
:1002C0005B07E62FB901CA01EA30F4F4E05DD8011A
:1002D000EE938D01232B242B252B79F790E080E0E2
:1002E000109719F0CD010E943501A1960FB6F89430
:1002F000DEBF0FBECDBFDF91CF911F910F91BF9099
:10030000AF909F908F900895E95CE1CFCF93DF93FA
:10031000EC0160E08E810E94D30061E08E810E943A
:10032000D30060E08E810E94D3008BE891E00197BA
:10033000F1F7DF91CF910895CF92DF92EF92FF9284
:100340000F931F93CF93DF936C017C0187E0E80E3E
:10035000F11CD0E0C0E0062F10E0B8010C2E02C066
:10036000759567950A94E2F76170F70181917F01B5
:100370000E94D3002196C430D10579F7C601DF91E0
:10038000CF911F910F91FF90EF90DF90CF900C9441
:100390008601CF92DF92EF92FF920F931F93CF933C
:1003A000DF93EC01F62E642F8C810E94D3008D81A7
:1003B0008F3F19F060E00E94D3000F2D10E08F8571
:1003C00084FF25C06E0187E0C80ED11CF12CE12C02
:1003D000B8010E2C02C0759567950A94E2F761701A
:1003E000F60181916F010E94D300FFEFEF1AFF0A1F
:1003F00088E0E816F10461F7CE01DF91CF911F91FB
:100400000F91FF90EF90DF90CF900C948601B80190
:1004100084E0759567958A95E1F7CE010E949C016D
:100420006F2DCE01DF91CF911F910F91FF90EF9033
:10043000DF90CF900C949C0140E0682F83E491E022
:100440000C94C901CF93DF93823029F4909152012B
:10045000986090935201809356011092570180E466
:100460008093580180E18093590180E580935A017F
:10047000809147010E948700809148018F3F11F0D1
:100480000E948700809149010E948700C3E4D1E067
:100490009E01235431408091520184FD0AC084E0C2
:1004A00090E02196281739073CF48E810E9487003E
:1004B000EFCF88E090E0F5CF8BE39DE00197F1F777
:1004C00060E0809147010E94D30060E08091490183
:1004D0000E94D300809148018F3F19F060E00E9494
:1004E000D3008091520184FD39C063E083E491E040
:1004F0000E949C01CBE4D6E4CE010197F1F763E0C2
:1005000083E491E00E949C012197F1F763E083E48A
:1005100091E00E949C0183E592E00197F1F762E08F
:1005200083E491E00E949C018091520180620E94CC
:100530001C0284E0809353018CE00E941C0281E045
:100540000E941C028BE39FE10197F1F782E0809308
:10055000540186E0DF91CF910C941C0280620E94CE
:100560001C028BE496E40197F1F7809152018062BE
:100570000E941C0283E592E00197F1F780915201FD
:1005800080620E941C02D0CF41E00E94C90181E03C
:1005900090E008954F925F926F927F928F929F9218
:1005A000AF92BF92CF92DF92EF92FF920F931F9381
:1005B000CF936B017C01742EAC019B010E94560706
:1005C000882399F08CE091E0CF911F910F91FF90DB
:1005D000EF90DF90CF90BF90AF909F908F907F90E3
:1005E0006F905F904F900C94350146015701E8944D
:1005F000B7F82FEF3FEF4FE75FE7C501B4010E9467
:10060000560781110DC02FEF3FEF4FE75FE7C501A0
:10061000B4010E948C0518161CF480E191E0D4CF3F
:100620002FEF3FEF4FE75FE4C701B6010E94E406FA
:1006300018161CF484E191E0C7CF2FEF3FEF4FE78E
:100640005FECC701B6010E948C0587FDF3CF20E067
:1006500030E0A901C701B6010E948C0510E000E05E
:1006600087FF0CC041E06DE283E491E00E94C90184
:10067000F7FAF094F7F8F09401E010E0C0E060E0E1
:1006800070E080E09FE37C1641F020E030E040E243
:1006900051E40E949105CF5FF6CFA70196010E9419
:1006A00020054B015C010E9403062B013C014AE03E
:1006B0000E944201080F191FCC23C9F1C301B201E6
:1006C0000E9432069B01AC01C501B4010E941F05C6
:1006D0004B015C0141E06EE283E491E00E94C901BC
:1006E0000F5F1F4FC15018F120E030E040E251E4AD
:1006F000C501B4010E94E9062B013C010E940306DA
:100700004B01B12CA12C4AE0C501B4010E94420169
:10071000080F191FC501B4010E9432069B01AC01EC
:10072000C301B2010E941F054B015C01DBCFC80170
:10073000CF911F910F91FF90EF90DF90CF90BF90DE
:10074000AF909F908F907F906F905F904F900895A3
:100750001F920F920FB60F9211242F933F938F93F6
:100760009F93AF93BF9380912F0190913001A091FF
:100770003101B091320130912E0123E0230F2D374A
:1007800058F50196A11DB11D20932E0180932F01D4
:1007900090933001A0933101B093320180912A01EE
:1007A00090912B01A0912C01B0912D010196A11DDA
:1007B000B11D80932A0190932B01A0932C01B0933B
:1007C0002D01BF91AF919F918F913F912F910F90EC
:1007D0000FBE0F901F90189526E8230F0296A11DBB
:1007E000B11DD2CF789484B5826084BD84B5816018
:1007F00084BD85B5826085BD85B5816085BD8091EC
:100800006E00816080936E00109281008091810063
:10081000826080938100809181008160809381005B
:10082000809180008160809380008091B10084601D
:100830008093B1008091B00081608093B00080917E
:100840007A00846080937A0080917A00826080933D
:100850007A0080917A00816080937A0080917A009A
:10086000806880937A001092C10082E00E94220288
:10087000C0E0D0E08EE00E941F01BC01990F880B00
:10088000990B0E9434066B017C01C0923F01D0920B
:100890004001E0924101F09242018FE00E941F016D
:1008A0005C0120E030E040E85AE3C701B6010E9455
:1008B000E90620E030E040EA50E40E94E90620E04A
:1008C00030E04AE754E40E94E90620E030E44CE1DD
:1008D00055E40E941F0520E030E048EC52E40E94FD
:1008E00091056B017C01C0923B01D0923C01E092EA
:1008F0003D01F0923E01B501BB0C880B990B0E94A3
:10090000340620E030E040EA50E40E94E90620E0AE
:1009100030E040E85AE30E94E90620E030E040E29F
:1009200051E40E94E9064B015C01809237019092EC
:100930003801A0923901B0923A01E1E0809156016C
:100940008111E0E0E195F0E0ED5BFE4F8489806885
:100950000E941C02A5019401C701B6010E94E9068C
:100960006093330170933401809335019093360185
:1009700088E191E00E94350160913301709134016A
:10098000809135019091360142E00E94CA028DE1CA
:1009900091E00E943501E0915601E23080F5E1508E
:1009A000F0E0ED5BFE4F848980680E941C028FE1BD
:1009B00091E00E943501609137017091380180917A
:1009C000390190913A0142E00E94CA0282E291E02C
:1009D0000E94350160913B0170913C0180913D0185
:1009E00090913E0142E00E94CA0287E291E00E949B
:1009F0003501209709F43ECF0E9400003BCFE1E093
:100A0000CFCFE3E4F1E01382128284E091E091839E
:100A1000808387E084838FEF858386E0868385E00B
:100A2000878384E0808783E0818782E082871386E2
:100A3000148615861686178681E00C94220250587B
:100A4000BB27AA270E9437050C94AA060E949C0681
:100A500038F00E94A30620F039F49F3F19F426F4E1
:100A60000C9499060EF4E095E7FB0C949306E92F9D
:100A70000E94BB0658F3BA176207730784079507ED
:100A800020F079F4A6F50C94DD060EF4E0950B2E1B
:100A9000BA2FA02D0B01B90190010C01CA01A001D0
:100AA0001124FF27591B99F0593F50F4503E68F12B
:100AB0001A16F040A22F232F342F4427585FF3CF6C
:100AC000469537952795A795F0405395C9F77EF43D
:100AD0001F16BA0B620B730B840BBAF09150A1F086
:100AE000FF0FBB1F661F771F881FC2F70EC0BA0F0C
:100AF000621F731F841F48F4879577956795B79594
:100B0000F7959E3F08F0B0CF9395880F08F099278E
:100B1000EE0F9795879508950E946F0608F481E07F
:100B200008950E94A5050C94AA060E94A30658F0F9
:100B30000E949C0640F029F45F3F29F00C94930634
:100B400051110C94DE060C9499060E94BB0668F3C2
:100B50009923B1F3552391F3951B550BBB27AA2776
:100B600062177307840738F09F5F5F4F220F331FB0
:100B7000441FAA1FA9F335D00E2E3AF0E0E832D078
:100B800091505040E695001CCAF72BD0FE2F29D07B
:100B9000660F771F881FBB1F261737074807AB074D
:100BA000B0E809F0BB0B802DBF01FF2793585F4FC2
:100BB0003AF09E3F510578F00C9493060C94DE06B3
:100BC0005F3FE4F3983ED4F3869577956795B795A4
:100BD000F7959F5FC9F7880F911D9695879597F9AF
:100BE0000895E1E0660F771F881FBB1F6217730728
:100BF0008407BA0720F0621B730B840BBA0BEE1F3D
:100C000088F7E09508950E94C30688F09F5798F0F2
:100C1000B92F9927B751B0F0E1F0660F771F881F01
:100C2000991F1AF0BA95C9F714C0B13091F00E941B
:100C3000DD06B1E008950C94DD06672F782F882734
:100C4000B85F39F0B93FCCF3869577956795B39542
:100C5000D9F73EF490958095709561957F4F8F4FB1
:100C60009F4F0895E89409C097FB3EF490958095B6
:100C7000709561957F4F8F4F9F4F9923A9F0F92F62
:100C800096E9BB279395F695879577956795B795E0
:100C9000F111F8CFFAF4BB0F11F460FF1BC06F5FC6
:100CA0007F4F8F4F9F4F16C0882311F096E911C0D8
:100CB000772321F09EE8872F762F05C0662371F0F9
:100CC00096E8862F70E060E02AF09A95660F771F0D
:100CD000881FDAF7880F9695879597F90895990FE9
:100CE0000008550FAA0BE0E8FEEF16161706E807F6
:100CF000F907C0F012161306E407F50798F0621B17
:100D0000730B840B950B39F40A2661F0232B242BEB
:100D1000252B21F408950A2609F4A140A6958FEF0A
:100D2000811D811D089597F99F6780E870E060E05C
:100D300008959FEF80EC089500240A941616170674
:100D400018060906089500240A94121613061406BC
:100D500005060895092E0394000C11F4882352F01F
:100D6000BB0F40F4BF2B11F460FF04C06F5F7F4FD7
:100D70008F4F9F4F089557FD9058440F551F59F0BE
:100D80005F3F71F04795880F97FB991F61F09F3F78
:100D900079F087950895121613061406551FF2CFA1
:100DA0004695F1DF08C0161617061806991FF1CFF1
:100DB00086957105610508940895E894BB27662718
:100DC0007727CB0197F908950E946F0608F48FEFFB
:100DD00008950E94FC060C94AA060E949C0638F016
:100DE0000E94A30620F0952311F00C9493060C9416
:100DF000990611240C94DE060E94BB0670F3959FA1
:100E0000C1F3950F50E0551F629FF001729FBB2701
:100E1000F00DB11D639FAA27F00DB11DAA1F649F9D
:100E20006627B00DA11D661F829F2227B00DA11D50
:100E3000621F739FB00DA11D621F839FA00D611DD6
:100E4000221F749F3327A00D611D231F849F600DF7
:100E5000211D822F762F6A2F11249F5750409AF020
:100E6000F1F088234AF0EE0FFF1FBB1F661F771FAC
:100E7000881F91505040A9F79E3F510580F00C9477
:100E800093060C94DE065F3FE4F3983ED4F3869518
:100E900077956795B795F795E7959F5FC1F7FE2B17
:100EA000880F911D9695879597F908950E946F0672
:100EB000880B990B0895A1E21A2EAA1BBB1BFD01FA
:100EC0000DC0AA1FBB1FEE1FFF1FA217B307E40729
:100ED000F50720F0A21BB30BE40BF50B661F771F81
:100EE000881F991F1A9469F7609570958095909561
:100EF0009B01AC01BD01CF010895EE0FFF1F0590CE
:0A0F0000F491E02D0994F894FFCF5E
:100F0A0000000000C402A600320131016E616E00C9
:100F1A00696E66006F7666005070763D005700561F
:0A0F2A003D005620493D0041000043
:107E0000112484B714BE81FFF0D085E080938100F7
:107E100082E08093C00088E18093C10086E0809377
:107E2000C20080E18093C4008EE0C9D0259A86E02C
:107E300020E33CEF91E0309385002093840096BBD3
:107E4000B09BFECF1D9AA8958150A9F7CC24DD24C4
:107E500088248394B5E0AB2EA1E19A2EF3E0BF2EE7
:107E6000A2D0813461F49FD0082FAFD0023811F036
:107E7000013811F484E001C083E08DD089C08234E0
:107E800011F484E103C0853419F485E0A6D080C0E4
:107E9000853579F488D0E82EFF2485D0082F10E0AE
:107EA000102F00270E291F29000F111F8ED06801E7
:107EB0006FC0863521F484E090D080E0DECF843638
:107EC00009F040C070D06FD0082F6DD080E0C81688
:107ED00080E7D80618F4F601B7BEE895C0E0D1E017
:107EE00062D089930C17E1F7F0E0CF16F0E7DF06D8
:107EF00018F0F601B7BEE89568D007B600FCFDCFD4
:107F0000A601A0E0B1E02C9130E011968C91119780
:107F100090E0982F8827822B932B1296FA010C0160
:107F200087BEE89511244E5F5F4FF1E0A038BF0790
:107F300051F7F601A7BEE89507B600FCFDCF97BE46
:107F4000E89526C08437B1F42ED02DD0F82E2BD052
:107F50003CD0F601EF2C8F010F5F1F4F84911BD097
:107F6000EA94F801C1F70894C11CD11CFA94CF0C13
:107F7000D11C0EC0853739F428D08EE10CD085E9AC
:107F80000AD08FE07ACF813511F488E018D01DD067
:107F900080E101D065CF982F8091C00085FFFCCF94
:107FA0009093C60008958091C00087FFFCCF809118
:107FB000C00084FD01C0A8958091C6000895E0E648
:107FC000F0E098E1908380830895EDDF803219F02E
:107FD00088E0F5DFFFCF84E1DECF1F93182FE3DFCA
:107FE0001150E9F7F2DF1F91089580E0E8DFEE27F6
:047FF000FF270994CA
:027FFE00040479
:0400000300007E007B
:00000001FF
